:10000000022F3302008653EFFE323202001253EF0A
:0A001000FD323202000A53EFFB320A
:07001B000236A253EFFE3292
:1000230002334790038CE0FCA3E0FDED1D70011C3F
:1000330014AA044C70F5EF1F70011E144E70E422D5
:1000430002386AC2A3123901D2A3023908C2AF220D
:0700530002000653EFFD322D
:06005B0002000ED2AF22EC
:1000630002001E90007DEFF0AA03A9051239511278
:0F00730037FDAF01123801AF021238010200460B
:06008300020016C2CA32A1
:03008B0002388CAC
:030093000238AE82
:03009B000200560A
:1000A300023555020467E86480F8E933E8336011E8
:1000B3000460F0ED33EC337009E8FCE9FDEAFEEB94
:1000C300FF220460DED3EB9FEA9EE99DE8C2E78C42
:1000D300F0C2F795F0400CE8CCF8E9CDF9EACEFA96
:1000E300EBCFFB12043285D0F05804700320D5B354
:1000F300E80470075002B2D502047192D5EC046093
:10010300F7E4CCC0E0C398F8603B94186008400D56
:10011300D0E0FB020449E4FBFAC9FC8028E830E4A0
:1001230006E4C9FBE4CAFCE830E305E4C9CACBFC36
:10013300E854076010F8C3E913F9EA13FAEB13FB69
:10014300EC13FCD8F130F52FC3E49CFCEF9BFFEEDE
:100153009AFEED99FDD0E0FBEF4E4D4C701222DB81
:100163000302046EEC2CFCEF33FFEE33FEED33FDA4
:10017300ED30E7EB020449EF2BFFEE3AFEED39FDDC
:10018300D0E0FB50130BBB0003020471ED13FDEE33
:1001930013FEEF13FFEC13FC020449EC4D6011E86E
:1001A300497017ED33EC3304600DE4FCFFFEFD22D0
:1001B300E933E8330470F802046712043258046028
:1001C30009E4CC2481500628500902047128400315
:1001D30002046EC0E0EB4A7044B98006D0E0FB0233
:1001E300045DEF4E701CBD8008EBFFEAFEE9FD8065
:1001F300EBE98DF0A4FEE5F0020287E9CDF9EAFE12
:10020300EBFFEF89F0A4FCE5F0CE89F0A42EFFE428
:1002130035F0CD89F0A42DFEE435F08067EF4E7004
:1002230005BD80D780C3EF8BF0A4ACF0EE8BF0A4B8
:100233002CFCE435F0F8EF8AF0A42CE5F038FCE46C
:1002430033CB8DF0A42CFCE5F03BF8EE8AF0A42C24
:10025300FCE5F038F8E433CF89F0A42CFCE5F03862
:10026300CF3400CE89F0A42FFFE5F03EFEE433C97E
:100273008DF0A42EFEE5F039CD8AF0A42FFFE5F032
:100283003EFEE43DFD33D0E0FB50070BBB000F0205
:100293000471EC2CFCEF33FFEE33FEED33FD02046F
:1002A30049020471EC5D046005E85904700302041B
:1002B30067120432580460F6EC4860F2EC7004FDF7
:1002C300FEFF22C860DB2481C85009C39860025036
:1002D3000602046E9850CAF582E9294B4A7005ABB1
:1002E3008202045D75F0007C1A7880C3EF9BEE9A5E
:1002F300ED99400DC3EF9BFFEE9AFEED99FDE842A9
:10030300F0DC23ACF0D0E0FFD0E0FED0E0FDAB8228
:1003130020E7101BEB60BAEC2CFCEF33FFEE33FE4F
:10032300ED33FD020449E803F830E705C0F075F04A
:1003330000EF2FFFEE33FEED33FD40B830E7C28010
:10034300AA74F8CC6480CCC86480C8F58204604F7A
:10035300C3EB9FF5F0EA9E42F0E99D42F0E89C452D
:10036300F0603C501DE5825FFFE582D313CB5BCB8E
:10037300F42B5582FB50280ABA002409B90020083F
:10038300801DE5825BFBE582D313CF5FCFF4C313FC
:100393002F5582FF50090EBE00050DBD00010CC391
:1003A300EB9FF5F0EA9E42F0E99D42F0E89C45F0B0
:1003B3006007CC4820E701B3EC2275F020800E756E
:1003C300F010800575F0087D007E007F003392D524
:1003D30030D5031208C3EC334010EF33FFEE33FE86
:1003E300ED33FDEC33FCD5F0ED22E5F0247EA2D510
:1003F30013CC92E7CDCEFF22EDD2E7CD33EC33928F
:10040300D524814006E4FFFEFDFC22FCE4CFCECDE3
:10041300CC24E0501174FF80EDC3CC13CCCD13CDAD
:10042300CE13CECF13CF0470F030D5DE0208C3E96C
:10043300D2E7C933E833F892D5EDD2E7CD33EC33C5
:10044300FC5002B2D522EC30E7100FBF000C0EBEF9
:1004530000080DBD00040BEB6014A2D5EB13FCEDFB
:1004630092E7FD2274FFFCFDFEFF22E480F8A2D593
:1004730074FF13FC7D80E480EFC0E0EFFBEEFAED48
:10048300F9ECF812019ED0E0F5F0EFFBEEFAEDF98E
:10049300ECF812092BA3A3A3A3E8C0E0E9C0E0EAA8
:1004A300C0E0EBC0E0C0F012019E120947A3A3A372
:1004B300A31200ADD0F0D0E0FBD0E0FAD0E0F9D049
:1004C300E0F8D5F0D422E709F608DFFA8046E70919
:1004D300F208DFFA803E88828C83E709F0A3DFFA13
:1004E3008032E309F608DFFA8078E309F208DFFADD
:1004F300807088828C83E309F0A3DFFA80648982A9
:100503008A83E0A3F608DFFA805889828A83E0A30E
:10051300F208DFFA804C80D280FA80C680D48069EA
:1005230080F28033801080A680EA809A80A880DAE7
:1005330080E280CA803389828A83ECFAE493A3C879
:10054300C582C8CCC583CCF0A3C8C582C8CCC5833B
:10055300CCDFE9DEE7800D89828A83E493A3F60882
:10056300DFF9ECFAA9F0EDFB2289828A83ECFAE049
:10057300A3C8C582C8CCC583CCF0A3C8C582C8CCE8
:10058300C583CCDFEADEE880DB89828A83E493A338
:10059300F208DFF980CC88F0EF60010E4E60C3886B
:1005A300F0ED2402B4040050B9F582EB2402B40444
:1005B3000050AF232345822390051973C2D530F72A
:1005C30007B2D563F0FF05F030E70CB2D5F404842D
:1005D30063F0FF05F080018430D502F40422BB01EF
:1005E3000689828A83E0225002E722BBFE02E322CD
:1005F30089828A83E49322BB010CE58229F582E593
:10060300833AF583E0225006E92582F8E622BBFE11
:1006130006E92582F8E222E58229F582E5833AF5A7
:1006230083E49322BB010689828A83F0225002F776
:1006330022BBFE01F322F8BB010DE58229F582E519
:10064300833AF583E8F0225006E92582C8F622BBF7
:10065300FE05E92582C8F222EF8DF0A4A8F0CF8C25
:10066300F0A428CE8DF0A42EFE22BC000BBE0029E0
:10067300EF8DF084FFADF022E4CCF875F008EF2F96
:10068300FFEE33FEEC33FCEE9DEC984005FCEE9D53
:10069300FE0FD5F0E9E4CEFD22EDF8F5F0EE84206F
:1006A300D21CFEADF075F008EF2FFFED33FD4007D0
:1006B300985006D5F0F222C398FD0FD5F0EA22C276
:1006C300D5EC30E709B2D5E4C39DFDE49CFCEE30E4
:1006D300E715B2D5E4C39FFFE49EFE12066DC3E4A3
:1006E3009DFDE49CFC800312066D30D507C3E49F97
:1006F300FFE49EFE22C5F0F8A3E028F0C5F0F8E57C
:1007030082158270021583E038F022A3F8E0C5F069
:1007130025F0F0E582158270021583E0C838F0E811
:1007230022BB010A89828A83E0F5F0A3E022500606
:1007330087F009E71922BBFE07E3F5F009E3192265
:1007430089828A83E493F5F074019322BB0110E557
:100753008229F582E5833AF583E0F5F0A3E02250A0
:1007630009E92582F886F008E622BBFE0AE925821C
:10077300F8E2F5F008E222E5832AF583E993F5F040
:10078300A3E99322BB010A89828A83F0E5F0A3F0EF
:10079300225006F709A7F01922BBFE06F3E5F0097C
:1007A300F31922E88FF0A4CC8BF0A42CFCE98EF093
:1007B300A42CFC8AF0EDA42CFCEA8EF0A4CDA8F0C6
:1007C3008BF0A42DCC3825F0FDE98FF0A42CCD358A
:1007D300F0FCEB8EF0A4FEA9F0EB8FF0A4CFC5F0F4
:1007E3002ECD39FEE43CFCEAA42DCE35F0FDE43CED
:1007F300FC2275F008758200EF2FFFEE33FECD3338
:10080300CDCC33CCC58233C5829BED9AEC99E5827E
:1008130098400CF582EE9BFEED9AFDEC99FC0FD50A
:10082300F0D6E4CEFBE4CDFAE4CCF9A88222B800FA
:10083300C1B90059BA002DEC8BF084CFCECDFCE5C5
:10084300F0CBF97818EF2FFFEE33FEED33FDEC33E9
:10085300FCEB33FB10D703994004EB99FB0FD8E56E
:10086300E4F9FA227818EF2FFFEE33FEED33FDECB7
:1008730033FCC933C910D7059BE99A4007EC9BFCAD
:10088300E99AF90FD8E0E4C9FAE4CCFB2275F01039
:10089300EF2FFFEE33FEED33FDCC33CCC833C8105E
:1008A300D7079BEC9AE899400AED9BFDEC9AFCE88C
:1008B30099F80FD5F0DAE4CDFBE4CCFAE4C8F922D9
:1008C300C3E49FFFE49EFEE49DFDE49CFC22EB9FBA
:1008D300F5F0EA9E42F0E99D42F0EC6480C8648042
:1008E3009845F022EB9FF5F0EA9E42F0E99D42F035
:1008F300E89C45F022E8600FECC313FCED13FDEE1A
:1009030013FEEF13FFD8F122BB010789828A83020A
:100913000A2C5005E9F8020A20BBFE05E9F8020A91
:100923003889828A8302092BE493FC740193FD7452
:100933000293FE740393FF22E0F8A3E0F9A3E0FA25
:10094300A3E0FB22E493F8740193F9740293FA741D
:100953000393FB227401FF3395E0FEFDFCA3A3A3E5
:10096300E0CF2FF0E582158270021583E0CE3EF0D2
:10097300E582158270021583E0CD3DF0E582158294
:1009830070021583E0CC3CF022ECF0A3EDF0A3EE73
:10099300F0A3EFF022A8828583F0D083D0821209DE
:1009A300AF1209AF1209AF1209AFE473E493A3C501
:1009B30083C5F0C583C8C582C8F0A3C583C5F0C588
:1009C30083C8C582C822F5F0C582A4C582C5F0C517
:1009D30083A42583F58322BB010789828A83020AC4
:1009E3004D5005E9F8020A44BBFE05E9F8020A5630
:1009F30089828A83020A5FD083D082F8E4937012DB
:100A0300740193700DA3A393F8740193F582888303
:100A1300E4737402936860EFA3A3A380DFE6FC088A
:100A2300E6FD08E6FE08E6FF22E0FCA3E0FDA3E006
:100A3300FEA3E0FF22E2FC08E2FD08E2FE08E2FF7B
:100A430022E6FB08E6FA08E6F922E0FBA3E0FAA3B4
:100A5300E0F922E2FB08E2FA08E2F922E493FB74EC
:100A63000193FA740293F9229000ACEBF0A3EAF03D
:100A7300A3E9F09000DA120998000000009000DE6C
:100A83007401F0A37400F0A374B2F09000AFE0FB24
:100A9300A3E0FAA3E0F91205E17003020FF6900058
:100AA300E1F064256003020FA29000AFA3E475F0A8
:100AB300011206F8A9F0FA1205E11209FA0F6E25E0
:100AC3000B6F460E48580AE8630B04640B6F660B02
:100AD30004690DCE6F0F15700E9C730D48750E488B
:100AE3007800000FE99000DEE0FBA3E475F0041248
:100AF300070EA9F0FA12090B9000E2EFF0E0020FE3
:100B0300B09000DEE0FBA3E475F00412070EA9F039
:100B1300FA12090B90010312098C900103E0FCA364
:100B2300E0FDA3E0FEA3E0FF7B017A0079E2900100
:100B33000F7401F0A3740AF012214A900107EFF039
:100B4300900103E0FCA3A3A3EC335014A3E024E23D
:100B5300F582E43400F583742DF0900107E004F08E
:100B63007B017A0079E2900107020D8C9000DEE0B0
:100B7300FBA3E475F00412070EA9F0FA12090B9017
:100B8300010312098C900103E0FCA3E0FDA3E0FE46
:100B9300A3E0FF1203FB7B017A0079E290010F745B
:100BA30001F0A3740AF012214A900107EFF0E4FF69
:100BB300FEFDFC900103E0F8A3E0F9A3E0FAA3E053
:100BC300FB74FC1203465016900107E024E2F58201
:100BD300E43400F583742DF0900107E004F07B0109
:100BE3007A0079E2900107122ADE900107E0FF7E86
:100BF300009000ACE0FBA3E0FAA3E0F8AC02AD0385
:100C03007B017A0079E2120599900107E0FFFD90DC
:100C130000ADE48DF01206F89000DAE0F8A3E0F9F5
:100C2300A3E0FAA3E0FBE4FCFDFEEB2FFFEE3AFEAC
:100C3300ED39FDEC38FC9000DA12098C900103E0E9
:100C4300FCA3E0FDA3E0FEA3E0FF1203FBEC120311
:100C5300BDA804A905AA06AB07900103E0FCA3E025
:100C6300FDA3E0FEA3E0FF1200A97B007A247974C0
:100C7300784912019E90010312098C900103E0FC54
:100C8300A3E0FDA3E0FEA3E0FFEC4D4E4F602490F4
:100C93000103A3A3A3E01203FB7B017A0079E29093
:100CA300010F7401F0A3740AF012214A900107EFB7
:100CB300F080209000E77430F09000E6F09000E5BB
:100CC300F09000E4F09000E3F09000E2F090010770
:100CD3007406F0900107E0FFFDD374069D7480F85D
:100CE30098401574E22FF582E43400F5837430F0F4
:100CF300900107E004F080DB900107E024E2F58235
:100D0300E43400F583742EF0900107E004122AD72F
:100D1300900107E0FF7E009000ACE0FBA3E0FAA3A4
:100D2300E0F8AC02AD037B017A0079E212059990F9
:100D330000DAE0F8A3E0F9A3E0FAA3E0FB900107EF
:100D4300E0FF020E8A9000DEE0FBA3E475F00412DC
:100D5300070EA9F0FA12090B90010312098C9001F6
:100D630003E0FCA3E0FDA3E0FEA3E0FF7B017A0028
:100D730079E2E490010FF0A3740AF012214A900182
:100D830007EFF07B017A0079E2122ADE900107E097
:100D9300FF7E009000ACE0FBA3E0FAA3E0F8AC0216
:100DA300AD037B017A0079E2120599900107E0FF18
:100DB300FD9000ADE48DF01206F89000DAE0F8A3A0
:100DC300E0F9A3E0FAA3E0FB020E8A9000DEE0FB69
:100DD300A3E475F00412070EA9F0FA12090B9001AF
:100DE3000312098C900103E0FCA3E0FDA3E0FEA342
:100DF300E0FF7B017A0079E2E490010FF0A374082D
:100E0300F012214A122AD3900107E0FF7E009000DE
:100E1300ACE0FBA3E0FAA3E0F8AC02AD037B017AFC
:100E23000079E2120599900107E0FFFD9000ADE41F
:100E33008DF01206F89000DAE0F8A3E0F9A3E0FAE7
:100E4300A3E0FB8042122114122AD3900107E0FF92
:100E53007E009000ACE0FBA3E0FAA3E0F8AC02ADA7
:100E6300037B017A0079E2120599900107E0FFFD07
:100E73009000ADE48DF01206F89000DAE0F8A3E0FC
:100E8300F9A3E0FAA3E0FBE4FCFDFEEB2FFFEE3A4F
:100E9300FEED39FDEC38020FE29000DEE0FBA3E447
:100EA30075F00312070EA9F0FA1209DA9000E2EBCB
:100EB300F0A3EAF0A3E9F09000E2E0FBA3E0FAA3D9
:100EC300E0F91205E17003020FE91205E1FF90005A
:100ED300ACE0FBA3E0FAA3E0F9EF1206279000AD24
:100EE300E475F0011206F89000DAE0FCA3E0FDA33C
:100EF300E0FEA3E02401FFE43EFEE43DFDE43CFC10
:100F03009000DA12098C9000E3E475F0011206F800
:100F130080A5122114900107EFF07B017A0079E29A
:100F23007F087E007D007C00122AE49000ACE0FB89
:100F3300A3E0FAA3E0F8AC02AD037B017A0079E207
:100F43007E007F081205999000ADE475F008120643
:100F5300F89000DAE0FCA3E0FDA3E0FEA3E02408A0
:100F6300FFE43EFEE43DFDE43C80749000ACE0FB16
:100F7300A3E0FAA3E0F974251206279000ADE47507
:100F8300F0011206F89000DAE0FCA3E0FDA3E0FE16
:100F9300A3E02401FFE43EFEE43DFDE43C804090F9
:100FA30000AFE0FBA3E0FAA3E0F91205E1FF900034
:100FB300ACE0FBA3E0FAA3E0F9EF1206279000AD43
:100FC300E475F0011206F89000DAE0FCA3E0FDA35B
:100FD300E0FEA3E02401FFE43EFEE43DFDE43CFC2F
:100FE3009000DA12098C9000B0E475F0011206F853
:100FF300020A8E9000DEE4F0A3F0A3F09000DAE0A2
:10100300FCA3E0FDA3E0FEA3E0FF22E4900004F0D4
:10101300A3F0A3F0A3F0A3F0A3F0A3F0A3F0A3F035
:10102300A374FFF0A3E4F0A374FFF0A3E4F0A374AC
:10103300FFF0A3E4F0A374FFF0E4A3F0A3F0A3F0A4
:10104300A3F0A3F0A3F0A3F0A3F0900002F0A3F0A9
:101053007D047F04123749AC06AD07900003E025F9
:10106300E0FF900002E033FE741C2FF58274003E13
:10107300F583ECF0A3EDF07D047F05123749AC0650
:10108300AD07900003E025E0FF900002E033FE741B
:10109300342FF58274003EF583ECF0A3EDF07D046C
:1010A3007F06123749AC06AD07900003E025E0FF49
:1010B300900002E033FE744C2FF58274003EF583FA
:1010C300ECF0A3EDF07D047F07123749AC06AD07C2
:1010D300900003E025E0FF900002E033FE74642FEC
:1010E300F58274003EF583ECF0A3EDF0741C2FF54C
:1010F3008274003EF583E0FEA3E0FF900004E0FC71
:10110300A3E0FDD39FEC9E4006AE04AF05800090A4
:101113000004EEF0A3EFF0900003E025E0FF900061
:1011230002E033FE741C2FF58274003EF583E0FE6B
:10113300A3E0FF90000CE0FCA3E0FDC39FEC9E50F6
:1011430006AE04AF05800090000CEEF0A3EFF09024
:101153000003E025E0FF900002E033FE74342FF536
:101163008274003EF583E0FEA3E0FF900006E0FCFE
:10117300A3E0FDD39FEC9E4006AE04AF0580009034
:101183000006EEF0A3EFF0900003E025E0FF9000EF
:1011930002E033FE74342FF58274003EF583E0FEE3
:1011A300A3E0FF90000EE0FCA3E0FDC39FEC9E5084
:1011B30006AE04AF05800090000EEEF0A3EFF090B2
:1011C3000003E025E0FF900002E033FE744C2FF5AE
:1011D3008274003EF583E0FEA3E0FF900008E0FC8C
:1011E300A3E0FDD39FEC9E4006AE04AF05800090C4
:1011F3000008EEF0A3EFF0900003E025E0FF90007D
:1012030002E033FE744C2FF58274003EF583E0FE5A
:10121300A3E0FF900010E0FCA3E0FDC39FEC9E5011
:1012230006AE04AF058000900010EEF0A3EFF0903F
:101233000003E025E0FF900002E033FE74642FF525
:101243008274003EF583E0FEA3E0FF90000AE0FC19
:10125300A3E0FDD39FEC9E4006AE04AF0580009053
:10126300000AEEF0A3EFF0900003E025E0FF90000A
:1012730002E033FE74642FF58274003EF583E0FED2
:10128300A3E0FF900012E0FCA3E0FDC39FEC9E509F
:1012930006AE04AF058000900012EEF0A3EFF090CD
:1012A3000002E0FCA3E0FD25E0FFEC33FE741C2FFD
:1012B300F58274003EF583E0FAA3E0FB900015E0AD
:1012C3002BF0900014E03AF074342FF58274003E52
:1012D300F583E0FEA3E0FF900017E02FF0900016E7
:1012E300E03EF0ED25E0FFEC33FE744C2FF5827405
:1012F300003EF583E0FCA3E0FD900019E02DF090A3
:101303000018E03CF074642FF58274003EF583E02E
:10131300FEA3E0FF90001BE02FF090001AE03EF0E8
:10132300900003E004F07006900002E004F0C39024
:101333000003E0940C900002E09400500302105369
:10134300900004E0FEA3E0FFC3900015E09FFF9030
:101353000014E09EFE90000CE0FCA3E0FDC3EF9DB3
:10136300FFEE9CFE7C007D0A12066D900348EEF0B2
:10137300A3EFF0900006E0FEA3E0FFC3900017E0A8
:101383009FFF900016E09EFE90000EE0FCA3E0FDA0
:10139300C3EF9DFFEE9CFE7C007D0A12066D900359
:1013A3004AEEF0A3EFF0900008E0FEA3E0FFC39045
:1013B3000019E09FFF900018E09EFE900010E0FCF3
:1013C300A3E0FDC3EF9DFFEE9CFE7C007D0A1206A9
:1013D3006D90034CEEF0A3EFF090000AE0FEA3E063
:1013E300FFC390001BE09FFF90001AE09EFE900059
:1013F30012E0FCA3E0FDC3EF9DFFEE9CFE7C007DAD
:101403000A12066D90034EEEF0A3EFF02290030D47
:10141300E0FF3395E0FEEF4E6003021508123396AA
:101423001233E31225D1122731122FBFAC06AD07B9
:10143300EC1203C290032112098C900321E0FCA358
:10144300E0FDA3E0FEA3E0FF1203FB900000EEF03B
:10145300A3EFF090034AE0FCA3E0FDC3940AEC94ED
:1014630000502990034CE0FEA3E0C3940AEE9400DD
:10147300501A900000E0FEA3E0FF900312EEF0A3E9
:10148300EFF02432FFE43E9003178075C3ED940A16
:10149300EC9400500F90034CE0FEA3E0C3940AEEDB
:1014A30094004043900348E0FEA3E0D39414EE94E9
:1014B30000400F90034EE0FEA3E0D39414EE94009B
:1014C3005025900000E0FCA3E0FD2444FEEC34FD35
:1014D300900312F0A3CEF0ED24BCFEEC3402900393
:1014E30017F0A3CEF0801E90030D7401F09000005E
:1014F300E0FEA3E0FF900312EEF0A3EFF0900317DA
:10150300EEF0A3EFF090030DE0FF3395E0FEEF6400
:10151300014E6003021694900337E004F0123396F1
:101523001233E31225D1122731E4FF30C8091235F3
:101533000F90030BEE800C12350FC3E49FFFE49E64
:1015430090030BF0A3EFF07F0320CA0912350F902D
:101553000308EE800C12350FC3E49FFFE49E900353
:1015630008F0A3EFF0E4FF1234C67F031234C690F1
:10157300030BE0FEA3E0FF900308E0FCA3E0FD12F1
:101583002882900338EEF0A3EFF0900338E0FCA339
:10159300E0FDEC1203C290032BE0F8A3E0F9A3E013
:1015A300FAA3E0FB1200ADC004C005C006C007905B
:1015B3000358E0FCA3E0FDA3E0FEA3E0FF900006D8
:1015C30012098C900368E0FFA3E090000ACFF0A318
:1015D300EFF0D007D006D005D004122FEAAC06AD49
:1015E30007EC1203C290032112098C121CB790035B
:1015F30014EEF0A3EFF0900321E0FCA3E0FDA3E0E1
:10160300FEA3E0FF1203FB900000EEF0FCA3EFF05B
:10161300FD900314E0FAA3E0FBC3ED9BFEEC9A906C
:101623000312F0A3CEF0EB2DFEEA3C900317F0A3D8
:10163300CEF0900348E0FEA3E0C39405EE9400507F
:101643003B90034AE0FEA3E0C39405EE9400502CC4
:1016530090034CE0FEA3E0C39405EE9400501D906C
:10166300034EE0FEA3E0C39405EE9400500EE4FDA8
:10167300FCFFFE1230479003167401F090033EE026
:10168300FF3395E0FEEF64014E700690030D740383
:10169300F090030DE0FF3395E0FEEF64034E60032B
:1016A30002172D1233961233E31225D1122731126A
:1016B3002FBFAC06AD07EC1203C290032112098CB5
:1016C300900321E0FCA3E0FDA3E0FEA3E0FF1203EF
:1016D300FB900000EEF0A3EFF0900348E0FEA3E0E0
:1016E300D3940AEE9400403490034EE0FEA3E0D37B
:1016F300940AEE94004025900000E0FCA3E0FD2452
:1017030048FEEC34F4900312F0A3CEF0ED24B8FEBF
:10171300EC340B900317F0A3CEF0800E90031674F5
:1017230001F0E4FDFCFFFE123047900316E0FF33A7
:1017330095E0FEEF4E70297B0190000504F0A37441
:1017430003F0A37417F07A0379121231B6900312DF
:10175300E0FEA3E0FF900317E0FCA3E0FD12304797
:1017630022ED6003021807EF54F0F9FB7A007013BF
:10177300EF540FFEF87401088002C333D8FCF4520F
:10178300935294EB64104A7013EF540FFEF87401F4
:10179300088002C333D8FCF452915292E96420705A
:1017A30013EF540FFEF87401088002C333D8FCF41E
:1017B30052955296E9FB7A0064307013EF540FFE92
:1017C300F87401088002C333D8FCF452B152B2EB6F
:1017D30064404A7013EF540FFEF87401088002C38B
:1017E30033D8FCF452B352B4E964506003021A14C0
:1017F300EF540FFEF87401088002C333D8FCF4528F
:10180300C952CA22ED640160030218B7EF54F0F91C
:10181300FB7A007015EF540FFEF87401088002C3C1
:1018230033D8FCFEF45293EE4294EB64104A7015E5
:10183300EF540FFEF87401088002C333D8FCFEF4A2
:101843005291EE4292E964207015EF540FFEF87442
:1018530001088002C333D8FCFEF45295EE4296E9A8
:10186300FB7A0064307015EF540FFEF874010880A2
:1018730002C333D8FCFEF452B1EE42B2EB64404AE9
:101883007015EF540FFEF87401088002C333D8FCBF
:10189300FEF452B3EE42B4E964506003021A14EF4B
:1018A300540FFEF87401088002C333D8FCFEF452CF
:1018B300C9021A11ED64026003021968EF54F0F9CA
:1018C300FB7A007015EF540FFEF87401088002C311
:1018D30033D8FCFE4293EEF45294EB64104A701535
:1018E300EF540FFEF87401088002C333D8FCFE42A4
:1018F30091EEF45292E964207015EF540FFEF874E0
:1019030001088002C333D8FCFE4295EEF45296E9F7
:10191300FB7A0064307015EF540FFEF874010880F1
:1019230002C333D8FCFE42B1EEF452B2EB64404A38
:101933007015EF540FFEF87401088002C333D8FC0E
:10194300FE42B3EEF452B4E964506003021A14EF9A
:10195300540FFEF87401088002C333D8FCFE42C959
:10196300EEF452CA22ED64036003021A14EF54F03A
:10197300FD7C007014EF540FFEF87401088002C35D
:1019830033D8FCFE4293EE4294ED64104C7014EF96
:10199300540FFEF87401088002C333D8FCFE429151
:1019A300EE4292EF54F064207014EF540FFEF8747B
:1019B30001088002C333D8FCFE4295EE4296EF54F1
:1019C300F0FD7C0064307014EF540FFEF8740108CE
:1019D3008002C333D8FCFE42B1EE42B2ED64404C08
:1019E3007014EF540FFEF87401088002C333D8FC5F
:1019F300FE42B3EE42B4EF54F064507014EF540F50
:101A0300FEF87401088002C333D8FCFE42C9EE42DB
:101A1300CA2290007DEFF0E4900086F0A3F043BA71
:101A23008090007DE0FF1222CA90007EE0F8A3E0E0
:101A3300F9A3E0FAA3E0FB900388E0FCA3E0FDA395
:101A4300E0FEA3E0FF12083178101208F890008638
:101A5300EEF0A3EFF090007EE0F8A3E0F9A3E0FA44
:101A6300A3E0FB900388E0FCA3E0FDA3E0FEA3E07A
:101A7300FF120831C006C007900087E02401FF90E1
:101A83000086E03400AB07FAE4F9F8D007D0061279
:101A93000831EF24FFFFEE34FF900084F0A3EFF052
:101AA300900082E0FCA3E0FDE41203C27B007A40D5
:101AB300791C78461202A7C004C005C006C007906F
:101AC3000084E0FCA3E0FDE41203C2D003D002D003
:101AD30001D00012019E1203FBAD07AC0690007DFE
:101AE300E0FFD374409F7480F8984003021BC790B3
:101AF300FEB5C083C082E0FF90007DE0FEC4540FBA
:101B030024FCF925E0FBF87401088002C333D8FCF8
:101B13004FD082D083F090FEB6C083C082E0FFEE48
:101B23005403FEA803088002C333D8FC4FD082D0ED
:101B330083F0E9C31324ECFFE434FE8F82F583C002
:101B430083C082E0FF90007DE0F9C4540FFE54018E
:101B530025E025E0FBF87401088002C333D8FC4F6D
:101B6300D082D083F0EE24E4FFE434FE8F82F58349
:101B7300E04460F0E04408F0900084E0FFA3E090CC
:101B8300FEF2CFF0A3EFF0900086E0FFA3E090FE1B
:101B9300F0CFF0A3EFF0E9C4540F24FCFFE434FFCB
:101BA300FEEF25E0FFEE33FEEF24F5FFEE34FE8F6C
:101BB30082F583ECF0A3EDF090FEFD7480F090FECF
:101BC300E0021CB390FEB1C083C082E0FB90007DB5
:101BD300E0FA5401F97E007401A801088005C333BB
:101BE300CE33CED8F9FFEAC4540F25E0FAEFA802AA
:101BF300088005C333CE33CED8F94BD082D083F0DF
:101C030090FEB2C083C082E0FF90007DE05407C322
:101C130013FEA802088002C333D8FC4FD082D083BE
:101C2300F090007DE0FFC413540724CCFBE434FEA2
:101C33008B82F583C083C082E0FEEFC4540FFF5450
:101C43000125E025E0FBE925E02BFBF87401088082
:101C530002C333D8FC4ED082D083F0EF24C8FFE414
:101C630034FE8F82F583E04460F0E04408F0900096
:101C730084E0FFA3E090FED2CFF0A3EFF0900086C4
:101C8300E0FFA3E090FED0CFF0A3EFF090007DE063
:101C9300C4540F75F002A424D5FFE5F034FE8F82FF
:101CA300F583ECF0A3EDF090FEDD7480F090FEC0C0
:101CB3007401F0229002F5E0701B04F0900006E03E
:101CC300FCA3E0FDA3E0FEA3E0FF1203FB9002F3FD
:101CD300EEF0A3EFF0900306E0FCA3E0FDEC1203AB
:101CE300C2C004C005C006C0079002FEE0FCA3E02A
:101CF300FDEC1203C2D003D002D001D0001202A720
:101D0300E4FBFA79C8784212019E90000212098C12
:101D1300900002E0FCA3E0FDA3E0FEA3E0FFA80423
:101D2300A905AA06FB12019E7B007A40799C7844A0
:101D33001202A7E4FBFAF978401200AD900002E02A
:101D4300F8A3E0F9A3E0FAA3E0FB12019EE4FBFA97
:101D5300792078411202A790000212098CE4FFFE59
:101D63007DC87C42900002E0F8A3E0F9A3E0FAA367
:101D7300E0FB74FC120346600E400C900002120953
:101D83009842C800008026E4FFFE7DC87CC2900014
:101D930002E0F8A3E0F9A3E0FAA3E0FB74FC12036A
:101DA30046500A900002120998C2C8000090036AC4
:101DB300E0FCA3E0FDFFAE0412065BEE3395E0FD0D
:101DC300FC7B007A09793D78001235E1EF2405FFA9
:101DD300E43EFEE43DFDE43CFC1203BD900006122C
:101DE300098C9002F3E0FCA3E0FDEC1203C27B9AA2
:101DF3007A997999783E12019EC004C005C006C045
:101E0300077433FFFEFD7C3F900006E0F8A3E0F982
:101E1300A3E0FAA3E0FB12019ED003D002D001D0CD
:101E2300001200AD90000612098C900308E0FEA397
:101E3300E0FF90030CE02FFF90030BE03EFE7C00DD
:101E43007D021206C2AC06AD07EC1203C29002FA81
:101E530012098C900300E0FCA3E0FDFFAE04120620
:101E63005BAC06AD07EC1203C2C004C005C006C0DC
:101E7300079002FAE0FCA3E0FDA3E0FEA3E0FFA8C5
:101E830004A905AA06FB12019ED003D002D001D0FB
:101E9300001202A7E4FBFA7980783F1200AD9003A9
:101EA30019E0F8A3E0F9A3E0FAA3E0FB12019E9086
:101EB3000002E0F8A3E0F9A3E0FAA3E0FB12019E1D
:101EC300C004C005C006C00790030EE0FCA3E0FDFC
:101ED300A3E0FEA3E0FF900006E0F8A3E0F9A3E08F
:101EE300FAA3E0FB12019EC004C005C006C0079020
:101EF300036AE0FCA3E0FDEC1203C2D003D002D0DE
:101F030001D00012019ED003D002D001D0001200F4
:101F1300AD1203FB90000AEEF0A3EFF0900006E091
:101F2300FCA3E0FDA3E0FEA3E0FF1203FB9002F39A
:101F3300EEF0A3EFF090000AE0FEA3E0FF22900092
:101F43007DEFF0A3EDF0A3EBF0A3E0F8A3E0F9A39A
:101F5300E0FAA3E0FB900388E0FCA3E0FDA3E0FE2E
:101F6300A3E0FF120831E47B04FAF9F8120831C345
:101F7300E49FFFE49EAD07FC90007DE01470030234
:101F8300201A14700302205D1470030220B6240388
:101F93006003022113900084E0FB7A006401701453
:101FA3004398508D8BECF58D438E40D28EE4900296
:101FB300E5F08011EB64024A700B4398508DD7EC27
:101FC300F5D6438E1553A23F90007EE0F9FF7E00C5
:101FD3007008A3E0640170028035EF64024E700D57
:101FE30090007FE06403700543A2408022E964040B
:101FF300700D90007FE06405700543A2808010E9B6
:102003006406700B90007FE06407700343A2C0E492
:102013009002E5F0D2AC22900084E06402700B439E
:102023009A108DD7ECF5D6438E1453BAFE90007EEA
:10203300E0FF7E0064087008A3E064097002801169
:10204300EF640A4E700B90007FE0640B700343BA99
:102053000143AF01E49002E6F022900084E0FB7AB2
:10206300006402700D439A108DD7ECF5D6438E149D
:102073008011EB64034A700B43AC508DD5ECF5D45F
:1020830043D10A53BAFD90007EE0FF7E00640C70DA
:1020930008A3E0640D70028011EF640E4E700B9084
:1020A300007FE0640F700343BA0243AF08E4900279
:1020B300E7F022900084E0FB7A006402700D438411
:1020C300108DD7ECF5D6438E148011EB64044A705F
:1020D3000B4384508DD3ECF5D243D1A053BAFB907C
:1020E300007EE0FF7E0064107008A3E064117002BC
:1020F3008016EF64124E701090007FE06413700836
:10210300F5CA75C90443BA0443AF10E49002E8F07A
:10211300229000DEE0FBA3E475F00412070EA9F0A1
:10212300FA12090B90010312098C900103E0FCA33E
:10213300E0FDA3E0FEA3E0FF7B017A0079E2E490F7
:10214300010FF0A37410F090010812098C90010C98
:10215300EBF0A3EAF0A3E9F0E4900119F0A3F09007
:10216300010FE07003022219900108E0FCA3E0FDD7
:10217300A3E0FEA3E0FF90011112098C900111E08E
:10218300FCA3E0FDA3E0FEA3E0FFEC3350109001BD
:1021930011A3A3A3E01208C390011112098C9001AB
:1021A30010E0FBE4FAF9F8A3E0FCA3E0FDA3E0FEF2
:1021B300A3E0FF1235E1EB2430FF90010CE0FBA319
:1021C300E0FAA3E0F9EF120627900111E0FCA3E087
:1021D300FDA3E0FEA3E0FFC007900110E0FBE4FADB
:1021E300F9F8D0071235E190011112098C90011A08
:1021F300E004F0900111E0FCA3E0FDA3E0FEA3E006
:10220300FFEC4D4E4F70030222C490010DE475F0B4
:10221300011206F88088900108E0FCA3E0FDA3E02A
:10222300FEA3E0FF90011512098C900110E0FBE47E
:10223300FAF9F8900115E0FCA3E0FDA3E0FEA3E0AA
:10224300FF120831AF03900119EFF0D3740A9F74A2
:1022530080F8985006E02437F08007900119E024B5
:1022630030F0900119E0FF90010CE0FBA3E0FAA32A
:10227300E0F9EF120627900115E0FCA3E0FDA3E0CF
:10228300FEA3E0FFC007900110E0FBE4FAF9F8D0E9
:102293000712083190011512098C90011AE004F01D
:1022A300900115E0FCA3E0FDA3E0FEA3E0FFEC4DED
:1022B3004E4F600D90010DE475F0011206F80222F5
:1022C3002D90011AE0FF22EF1209FA235000235741
:1022D30001235E02236503236C04237305237A1011
:1022E300238111238812238F13239614239D1523EF
:1022F300A42023AB2123B22223B92323C02423C741
:102303002523CE3023D53123DB3223E13323E734B6
:1023130023ED3523F33623F93723FF4024054124E6
:102323000B42241143241750241D512423522429E2
:1023330053242F60243561243B6224416324477076
:1023430023F371244D722453730000245A7D017FBB
:10235300100224577D017F110224577D017F200243
:1023630024577D017F210224577D017F600224577A
:102373007D017F610224577D017F120224577D0175
:102383007F130224577D017F220224577D017F237F
:102393000224577D017F620224577D017F6302245B
:1023A300577D017F140224577D017F150224577D39
:1023B300017F240224577D017F250224577D017F5D
:1023C300640224577D017F650224577D017F160235
:1023D30024577D017F17807C7D017F2680767D01D8
:1023E3007F2780707D017F66806A7D017F678064BF
:1023F3007D017F34805E7D017F3380587D017F20A6
:1024030080527D017F17804C7D01E4FF80467D0172
:102413007F7480407D017F21803A7D017F54803429
:102423007D017F01802E7D017F7580287D017F22C4
:1024330080227D017F33801C7D017F0280167D0118
:102443007F7680107D017F23800A7D017F038004D6
:102453007D017F771217642290007DEEF0A3EFF0E9
:10246300A3ECF0A3EDF0900086E0FFC374069F7425
:1024730080F89850037406F0900085E0FFC3740A57
:102483009F7480F8985003740AF0900081E0FCA3D5
:10249300E0FDA3E0FEA3E0FFE4FBFAF9F874FC120D
:1024A30003469000AF6031402F74FFF0A37447F0F0
:1024B300A3746FF0900081E0FCA3E0FDA3E0FEA312
:1024C300E0FF9000B212098C7B017A007988120A2E
:1024D3006B900087EFF0803074FFF0A37447F0A394
:1024E300746FF0900081E0FCA3E0FDA3E0FEA3E0A5
:1024F300FF9000B212098C7B017A007989120A6B72
:10250300900087EFF0E004F0900087E024F9FD905D
:102513000085E0FEC3ED9E149000AAF0900086E0D3
:10252300AE052E049000ABF09000AAE0FF3395E0D7
:10253300FED3E49FEE6480F87480984022A3E0FF0A
:102543003395E0FE74882FF58274003EF583742082
:10255300F09000ABE004F09000AAE004F080C99092
:102563000081E0FCA3E0FDA3E0FEA3E0FFE4FBFAAF
:10257300F9F874FC1203469000AA60174015E0FFB7
:102583003395E0FE74882FF58274003EF583742D35
:10259300F08013E0FF3395E0FE74882FF58274001A
:1025A3003EF5837420F09000ABE0FF3395E0FE74BA
:1025B300882FF58274003EF583E4F090007DA3E05C
:1025C300FFA3A3E0FD7B017A007988022E16900019
:1025D300061209983DC28F5C90000A12099838FBD5
:1025E300A882900347E0701604F0900002E0FCA379
:1025F300E0FDA3E0FEA3E0FF90033F12098C9003EC
:1026030060E0FCA3E0FDEC1203C290035012098CBE
:10261300900364E0FCA3E0FDEC1203C290035412A8
:10262300098C900368E0FCA3E0FDEC1203C2900365
:102633005C12098C90000AE0FCA3E0FDA3E0FEA37A
:10264300E0FF90035CE0F8A3E0F9A3E0FAA3E0FB6A
:1026530012019E90034312098C90033FE0FCA3E018
:10266300FDA3E0FEA3E0FFA3E0F8A3E0F9A3E0FAF3
:10267300A3E0FB1200AD1203FBAD07AC06EC1203A3
:10268300C290033F12098C900354E0F8A3E0F9A32E
:10269300E0FAA3E0FB900350E0FCA3E0FDA3E0FE1F
:1026A300A3E0FF1202A71229D1E4FBFA793478439D
:1026B30012019E7BC37AF5794878401202A7120370
:1026C300FBAD07AC06EC1203C290000212098C901A
:1026D3000006E0F8A3E0F9A3E0FAA3E0FBE4FFFEC1
:1026E3007D807C3F1200A9900358E0F8A3E0F9A392
:1026F300E0FAA3E0FB12019EC004C005C006C007B8
:10270300900002E0FCA3E0FDA3E0FEA3E0FFA3E052
:10271300F8A3E0F9A3E0FAA3E0FB12019ED003D0F3
:1027230002D001D0001200AD90035802098C1210A0
:102733000E900348E0FEA3E0FF90032FEEF0A3EF1B
:10274300F090034AE0FCA3E0FD900331ECF0A3ED2D
:10275300F090034CE0FBA3E0900333CBF0A3EBF04A
:1027630090034EE0FBA3E0900335CBF0A3EBF0EF37
:102773002DFBEE3CFA90034CE0FEA3E0FFC3EB9F7E
:10278300FFEA9EFE90034EE0FCA3E0FDC3EF9DFF36
:10279300EE9C9002FEF0A3EFF090034DE02BFF9030
:1027A300034CE03AFE90034FE02FFF90034EE03ED0
:1027B300900306F0A3EFF0E4FDEDFF3395E0FEC3D5
:1027C300EF9404EE648094804003022881E4FCECDF
:1027D300FF3395E0FEC3EF9403EE648094804003DF
:1027E30002287DEDFF3395E0FEEF25E0FFEE33FE9B
:1027F30074312FF58274033EF583E0FAA3E0FB7492
:102803002F2FF58274033EF583E0FEA3E0D39BEE06
:102813009A4063EDFF3395E0FEEF25E0FFEE33FED4
:10282300742F2FF58274033EF583A3E0F974312FDF
:10283300F58274033EF583E0FAA3E0FBEDFF3395E5
:10284300E0FEEF25E0FFEE33FE742F2FF5827403D5
:102853003EF583EAF0A3EBF0E9FBEDFF3395E0FEF1
:10286300EF25E0FFEE33FE74312FF58274033EF55E
:1028730083E4F0A3EBF00C0227D20D0227BC2290D5
:102883000002EEF0A3EFF0AB05AA04A31209983FF0
:10289300333333900337E0FF3395E0FEEF64124E9A
:1028A3006003022977900003E02BFF900002E03AD7
:1028B300FE7C007D021206C2900300E0FCA3E0FD53
:1028C300C3EF9DFFEE9C9002EFF0A3EFF0900004A6
:1028D300E0F8A3E0F9A3E0FAA3E0FBE4FFFE7D80C8
:1028E3007C3F1200A9C004C005C006C0079002F1D6
:1028F300E0FCA3E0FDEC1203C2D003D002D001D070
:102903000012019EC004C005C006C0079002EFE09C
:10291300FCA3E0FDEC1203C2900004E0F8A3E0F98D
:10292300A3E0FAA3E0FB12019ED003D002D001D0B2
:10293300001200AD1203FB9002EBEEF0A3EFF09058
:1029430002EBE0FCA3E0FD9002F1ECF0A3EDF0EC70
:102953001203C290033AE0F8A3E0F9A3E0FAA3E07C
:10296300FB12019E1203FB9002EDEEF0A3EFF0E4E5
:10297300900337F09002EDE0FEA3E0FFD39408EE5E
:102983006480948040067E007F088019C3EF94FD25
:10299300EE6480947F50067EFF7FFD80089002EDF9
:1029A300E0FEA3E0FF9002EDEEF0A3EFF022BE12F3
:1029B30049253E4CCCCDBEAAAAAB3F8000003E7A4F
:1029C300DBB03EED63383F24BC7D3F490FDBED3385
:1029D300ECC2E7CC339200B4FF13ED547F600302E3
:1029E30004677FDB7E0F7DC97C3F022AC6C201C319
:1029F300947F401E7007EDD2E794904015EFFBEEF5
:102A0300FAEDF9ECF87F007E007D807C3F1202A78F
:102A1300D201ED33EC33248430E705E4C0E0806B6E
:102A230004FAEDD2E754F0C333DAFD54073400233C
:102A330023C0E0CCC0E0F8EDC0E0F9EEC0E0FAEF6F
:102A4300C0E0FBE41203C7EC24FEFC90000E120965
:102A53008C12019E7B007A007980783F1200AD9042
:102A6300000EE0B2E7CCF0A3E0CDF0A3E0CEF0A3FC
:102A7300E0CFF0D0E0FBD0E0FAD0E0F9D0E0F812FC
:102A830000AD90000E12093B1202A790000E12092E
:102A93008C9029B1740312047C90000E12093B122E
:102AA300019ED0E0600F24BDF582E43429F5831242
:102AB30009471200AD30010B7BDB7A0F79C978BF70
:102AC3001200ADED33EC336006ECA20092E7FC227A
:102AD300900107EFF07B017A0079E2E0FFE4FCFD6F
:102AE300FE900108EBF0A3EAF0A3E9F0A312098C2E
:102AF30090010F12099800000000E47B02FAF9F834
:102B030090010BE0FCA3E0FDA3E0FEA3E0FF1208AD
:102B13003190010FE0F8A3E0F9A3E0FAA3E0FBC3CF
:102B23001208E74003022BCB90010BA3A3E0FEA303
:102B3300E024FFFBEE34FFFAA3A3A3E0FEA3E0FF30
:102B4300C3EB9FFDEA9EFC900108E0FBA3E0FAA320
:102B5300E0F98D828C831205FA900113F08F828E37
:102B6300831205FAFFC00790010BA3A3E0FEA3E0C5
:102B730024FFFBEE34FFFAA3A3A3E0FEA3E0FDAC26
:102B830006C3EB9DFFEA9CFE900108E0FBA3E0FA7D
:102B93008F828E83D0E0120639900113E0FFEF8D10
:102BA300828C8312063990010FE0FCA3E0FDA3E0C1
:102BB300FEA3E02401FFE43EFEE43DFDE43CFC9083
:102BC300010F12098C022AFD22900007ECF0A3EDFD
:102BD300F0900006EFF0D374409F7480F898506330
:102BE300A3E0FCA3E0FDE41203C27B007A40791C5E
:102BF30078461202A7C004C005C006C00790FEF2C3
:102C0300E0FCA3E0FDE41203C2D003D002D001D064
:102C13000012019E1203FB900009EEF0A3EFF09067
:102C23000009E0FCA3E0FD900006E0C4540F24FC7F
:102C3300FFE434FFFEEF25E0FFEE33FEEF24F5FF64
:102C4300EE8059900007E0FCA3E0FDE41203C27B91
:102C5300007A40791C78461202A7C004C005C0065A
:102C6300C00790FED2E0FCA3E0FDE41203C2D00350
:102C7300D002D001D00012019E1203FB900009EE96
:102C8300F0A3EFF0900009E0FCA3E0FD900006E064
:102C9300C4540F75F002A424D5FFE5F034FE8F82EF
:102CA300F583ECF0A3EDF0221231447FE87E0312AA
:102CB30000267FE87E031200267FE87E03120026AB
:102CC3007FE87E031200261200501232EA123144CA
:102CD300122D7012322512359BE4FD7F0E12347DC6
:102CE300E4FD7F0412347DE4FD7F0512347DE4FDB1
:102CF3007F0612347DE4FD7F0712347DE4FF123634
:102D0300257F0312362590007E1209980000426841
:102D1300E4900082F0A3F07F42121A1590007E1215
:102D2300099800004268E4900082F0A3F07F5212F9
:102D33001A1590007E12099800004268E490008200
:102D4300F0A3F07F12121A1590007E12099800006A
:102D53004268E4900082F0A3F07F32121A15123910
:102D6300417D057C007F01122EA602005ED287D230
:102D7300B7C2B57F327E00120026D2B57FAE1237BE
:102D830082E4FF1237827F101237827F401237822C
:102D93007F811237827F7F1237827FA11237827F32
:102DA300C81237827FA61237827FA81237827F3FED
:102DB3001237827FD3123782E4FF1237827FD51214
:102DC30037827F801237827FD91237827FF11237A1
:102DD300827FDA1237827F121237827FDB123782C9
:102DE3007F401237827F201237827F021237827F21
:102DF3008D1237827F141237827FA41237827FA607
:102E03001237827FAF123782E4FF1236DDE4FDFF13
:102E130002392D9000ACEFF0A3EDF0A3EBF0A3EAA1
:102E2300F0A3E9F0E4A3F0FCA3F09000AEE0FBA371
:102E3300E0FAA3E0F99000B2E0F582758300120591
:102E4300FA605F24E09000B1F09000ACE0D3947E90
:102E5300748094804006E4F0A3E004F09000ACE0BA
:102E6300FFA3E0FD12392DE4FCECC39406748094B7
:102E73008050209000B1E075F006A42450F582E55F
:102E8300F0343FF583E5822CF582E435831237D3A2
:102E93000C80D69000ACE02406F09000B2E004F081
:102EA30080882290007DEFF07E037FE812066D7C20
:102EB300007D0C12065BAB07AA06E4F9F8900388C1
:102EC300E0FCA3E0FDA3E0FEA3E0FF120831C3E4AE
:102ED3009FFFE49EFE90007DE0F9FD7C00700A8F69
:102EE3008AEEF58CD28CD2A922ED64014C700A8F44
:102EF3008BEEF58DD28ED2AB22E9FD7C006402709D
:102F03000C8FD7EEF5D6438E1043AF0422ED640346
:102F13004C700C8FD5EEF5D443D10843AF2022E992
:102F23006404700B8FD3EEF5D243D18043AF4022BC
:102F3300787FE4F6D8FD758120022F7A0237A7E463
:102F430093A3F8E493A34003F68001F208DFF4802F
:102F530029E493A3F85407240CC8C333C4540F447F
:102F630020C8834004F456800146F6DFE4800B0159
:102F730002040810204080903848E47E019360BC2E
:102F8300A3FF543F30E509541FFEE493A360010EF1
:102F9300CF54C025E060A840B8E493A3FAE493A318
:102FA300F8E493A3C8C582C8CAC583CAF0A3C8C539
:102FB30082C8CAC583CADFE9DEE780BE900358E052
:102FC300FCA3E0FDA3E0FEA3E0FF90000612098C42
:102FD300900368E0FFA3E090000ACFF0A3EFF07F37
:102FE300007E007D407C41AB07AA06A905A804909A
:102FF3000006E0FCA3E0FDA3E0FEA3E0FF1200A9AE
:10300300900325E0F8A3E0F9A3E0FAA3E0FB1201A3
:103013009EC004C005C006C00790000AE0FCA3E000
:10302300FDEC1203C290031DE0F8A3E0F9A3E0FA5C
:10303300A3E0FB12019ED003D002D001D000120006
:10304300AD0203FB900004ECF0A3EDF0900002EE60
:10305300F0A3EFF0C3EE64809480900002E0FE5092
:10306300131238EAAC06AD077F52122BCCE4FDFCF9
:103073007F4280111238EAAC06AD077F42122BCC97
:10308300E4FDFC7F52122BCC900004E0FEA3E0FF92
:10309300C3EE6480948050131238EDAC06AD077F05
:1030A30032122BCCE4FDFC7F128019900004E0FE69
:1030B300A3E0FF1238EDAC06AD077F12122BCCE470
:1030C300FDFC7F32122BCC22900008EFF0A3EDF031
:1030D300A3EBF0A3EAF0A3E9F01239519000081230
:1030E30037FDA3E0FF12380190000EE06401700386
:1030F300120046123951900008E025E04401FF1206
:10310300380190000DE014F060207F011237149015
:10311300000AE0FBA3E0FAA3E0F9EF120627900010
:103123000BE475F0011206F880D8E4FF123714900F
:10313300000AE0FBA3E0FAA3E0F9EF12062702007E
:1031430046E47B107A27F9F8900388E0FCA3E0FDBE
:10315300A3E0FEA3E0FF12083190038CEEF0A3EF8F
:10316300F07B407A42790F7800900388E0FCA3E07B
:10317300FDA3E0FEA3E0FF120831EF24FEFFEE34CF
:10318300FF90038EF0A3EFF07F007E1B7DB77C00E2
:10319300900388E0F8A3E0F9A3E0FAA3E0FBD312DD
:1031A30008E7500E90038FE004F0700690038EE062
:1031B30004F022120724D3940FE5F0648094A7400F
:1031C30008742775F00F120787120724C394F1E5DB
:1031D300F064809458500874D875F0F11207879002
:1031E3000005E0FBA3E0FAA3E0F9120724D3940F50
:1031F300E5F0648094A74008742775F00F120787E1
:10320300900005E0FBA3E0FAA3E0F9120724C394BE
:10321300F1E5F064809458500874D875F0F1120702
:1032230087227F0A7E001200261238237B807D6B63
:103233007F681200667F027E00120026E4FB7D6B2E
:103243007F68123667EF20E7F37B017D6B7F68129F
:103253000066E4FB7D6C7F681200667B017D1A7F4C
:10326300681200667B077D197F681200667B187DF4
:103273001B7F681200667B107D1C7F681200667BD3
:10328300037D1D7F68020066E4FFEFC394807480B2
:1032930094805038EF25E0241EF582E43401F58351
:1032A300A3E0FEEF25E0241CF582E43401F583A3BB
:1032B300E0C39EFD3395E0FCC3ED940AEC64809477
:1032C30080400690030AE004F00F80BE90030AE0FA
:1032D300FF3395E0FEC3EF940AEE648094804006CA
:1032E30090033EE004F02243FF10900388120998F4
:1032F30002A30000123144E4F594F593F592F5919D
:10330300F596F595F5B2F5B1F5B4F5B3F5CAF5C98A
:10331300F5CCF5CBF5E2F5E1F5DEF58EF598F59A0A
:10332300F5ACF584F5A2F5BAF5AFF58990008012F6
:1033330009980001C2009000847402F07B01E4FD4F
:10334300FF021F41C0E0C083C082C0D075D000C05F
:1033530007E59830E1085398FD9002E5E4F0E5981D
:1033630030E0255398FEAF99EF647F701690039079
:10337300E0FF04F0D3EF941474809480400A75C77F
:10338300608005900390E4F0D007D0D0D082D08342
:10339300D0E0327B017A00790290000D7406F0E4EC
:1033A300A3F07D3B7F681230CB900002E0FEA3E0E8
:1033B300FDEDFF900360EEF0A3EFF0900004E0FE5C
:1033C300A3E0FDEDFF900362EEF0A3EFF0900006A3
:1033D300E0FEA3E0FDEDFF900364EEF0A3EFF02227
:1033E3007B017A00790290000D7406F0E4A3F07D6E
:1033F300437F681230CB900002E0FEA3E0FDEDFFB7
:10340300900366EEF0A3EFF0900004E0FEA3E0FD6E
:10341300EDFF900368EEF0A3EFF0900006E0FEA34B
:10342300E0FDEDFF90036AEEF0A3EFF022E49000DD
:103433007CF0D2A0C2A1C2A0D2A1D2A0C2A1F0901E
:10344300007CE0C39480748094805027C2A07D02E6
:103453007F0D12374990007CE025E0241CF582E4BF
:103463003401F583EEF0A3EFF0D2A090007CE004EA
:10347300F080CC90011B7401F02243BC80EF131346
:1034830013541FFB7A0064017017EF5407FEF8749E
:1034930001088002C333D8FCFEF45294EE429380B9
:1034A30019EB4A7015EF5407FEF87401088002C344
:1034B30033D8FCFEF45292EE4291ED540F42DE43B8
:1034C300DE2022EF14601714601E1460271460308E
:1034D30024047037C28CE4F58CF58AD28C22C28E18
:1034E300E4F58DF58BD28E22538EEFE4F5D6F5D726
:1034F300438E102253D1F7E4F5D4F5D543D10822F6
:1035030053D17FE4F5D2F5D343D18022EF14601772
:1035130014601E14602514602C24047030AF8CEFEB
:10352300FCAF8AEFFD8026AF8DEFFCAF8BEFFD8004
:103533001CAFD6EFFCAFD7EFFD8012AFD4EFFCAFDB
:10354300D5EFFD8008AFD2EFFCAFD3EFFDAF05AEF3
:103553000422C0E0C0F0C083C082C0D075D000C0D8
:1035630000C001C002C003C004C005C006C00712EA
:10357300343012328B90030AE4F053EFFBD007D0C0
:1035830006D005D004D003D002D001D000D0D0D0D3
:1035930082D083D0F0D0E032900325120998438C77
:1035A300000090031D120998BFA6666690033A12A5
:1035B3000998BE3851EC900319120998423400005F
:1035C30090030E120998BE0D4FDF90032B1209983A
:1035D30040C00000900300E4F0A37446F022C2D57B
:1035E300E830E70FB2D5E4C39BFBE49AFAE499F918
:1035F300E498F8EC30E717B2D5123617120831E425
:10360300C39BFBE49AFAE499F9E498F8800312085F
:103613003130D50DE4C39FFFE49EFEE49DFDE49CA1
:10362300FC22EF14601814602014602614602C240C
:10363300047030E4F58AF58C438904D28C22E4F5D6
:103643008BF58D438940D28E22E4F5D7F5D6438E90
:103653001822E4F5D5F5D443D10C22E4F5D3F5D201
:1036630043D1C02290007EEDF0AA07A9031239517D
:10367300EA25E0FF123801E0FF123801E964017026
:1036830003120046123951AF02EF25E04401FF1245
:103693003801E4FF123714AD07120046AF0522C00C
:1036A300E0C0F0C083C082C0D075D000C000C001AC
:1036B300C002C003C004C005C006C007121410D066
:1036C30007D006D005D004D003D002D001D000D05B
:1036D300D0D082D083D0F0D0E032AC07E4FBEBC390
:1036E3009408748094805028EB24B0FF1237827FB3
:1036F300011237827F10123782E4FAEAC39480748E
:103703008094805008AF041237D80A80EE0B80CE25
:1037130022AD07E4FBC2A5123908D2A3E4FAEAC337
:103723009408748094805011123908123901EB25E2
:10373300E0FB30A3010B0A80E5C2A5123908AF05EF
:103743001238D0AF0322A90553BCF0EF42BC43BCEF
:1037530040E5BC30E5FB53BCDFAFBDEFFEADBEEDD6
:10376300FFE4F5BDF5BEAD01EFA805088005CEC3A6
:1037730013CE13D8F9FF2254F0C4540F4410FF7E24
:1037830008C287C2C9C2B7AD061EED6014EF30E7A9
:1037930004D2B68002C2B6D2B7C2B7EF25E0FF802B
:1037A300E6D28722122CAB900358E0FCA3E0FDA3E2
:1037B300E0FEA3E0FF90008112098C900085740461
:1037C300F0A37402F0E4FDFC7F32FE12245B80D789
:1037D300F583E493FF7E08C287D2C9C2B7AD061E44
:1037E300ED6014EF30E704D2B68002C2B6D2B7C29E
:1037F300B7EF25E0FF80E6D28722E025E0FFAD07A3
:103803007B08AF031BEF6015ED30E704D2A3800202
:10381300C2A3ED25E0FD123903C2A580E5023917E5
:10382300E490007DF090007DE064126017E4FB7D7E
:10383300757F6812366790007DEFF07F0A7E001275
:10384300002680E1224403880000000042038C002C
:103853000042038E00004103370041031600410379
:103863000D0041033E0000C0E0C083C082E59A30F2
:10387300E108539AFD9002E6E4F0E59A30E0035341
:103883009AFED082D083D0E032C0E0C083C082E50C
:10389300AC30E10853ACFD9002E7E4F0E5AC30E076
:1038A3000353ACFED082D083D0E032C0E0C083C0EB
:1038B30082E58430E1085384FD9002E8E4F0E58476
:1038C30030E0035384FED082D083D0E032AD07C210
:1038D300A5123908ED6004C2A38002D2A3D2A512B7
:1038E3003908C2A5023908A3E0FFD3EF9400EE64C0
:1038F300809480400122C3E49FFFE49EFE22C2A580
:10390300123908D2A57F0A7E00EF1FAC0670011E94
:103913004C70F62212390130A306C2A5E4FEFF2241
:10392300C2A51239087E007F0122AC07ED24B0FF47
:10393300123782EC12377AEC540FFF0237827D0183
:103943007F0D12347D7D0A7C007F04022EA6D2A354
:10395300D2A5123908C2A3123908C2A52200000059
:103963000000000000000000000000000000000054
:103973000808080808080800000808000000482490
:1039830024120000000000000000000000000000FE
:103993004848487E2424247E242424000000001068
:1039A3003C5252121C30505052523C101000000036
:1039B300222515150D2A58545452220000000000E8
:1039C3000C1212120A76252919916E0000000604C2
:1039D300040200000000000000000000000040207E
:1039E30010100808080808081010204000000204FE
:1039F300080810101010101008080402000000003E
:103A03000008086B1C1C6B08080000000000000085
:103A13000000101010FE1010100000000000000045
:103A23000000000000000000000604040200000083
:103A330000000000007E0000000000000000000005
:103A43000000000000000000000606000000004027
:103A530020202010100808080404020200000000BF
:103A6300182442424242424242241800000000000D
:103A7300101C10101010101010107C00000000001B
:103A83003C4242424020100804427E0000000000F5
:103A93003C4242402018204042423C0000000000CB
:103AA30020303028242422FE2020F80000000000CB
:103AB3007E0202021E22404042221C00000000003F
:103AC300182402023A4642424244380000000000F1
:103AD3007E4220201010080808080800000000009B
:103AE3003C4242422418244242423C00000000006F
:103AF3001C22424242625C40402418000000000045
:103B03000000001818000000001818000000000052
:103B13000000000008000000000008080800000082
:103B23004020100804020408102040000000000098
:103B33000000007E00007E00000000000000000086
:103B430002040810204020100804020000000000B6
:103B53003C424246201010100018180000000000DC
:103B63001C225A55555555553A423C000000000059
:103B73000808181414243C224242E7000000000005
:103B83001F2222221E22424242221F000000000066
:103B93007C4242010101010142221C00000000009D
:103BA3001F2242424242424242221F0000000000C2
:103BB3003F4212121E12120242423F000000000056
:103BC3003F4212121E1212020202070000000000FE
:103BD3003C2222010101712122221C00000000006D
:103BE300E7424242427E42424242E7000000000076
:103BF3003E0808080808080808083E0000000000FE
:103C03007C10101010101010101010110F00000075
:103C13007722120A0E0A12122222770000000000F5
:103C2300070202020202020202427F0000000000B9
:103C33007736363636362A2A2A2A6B0000000000E9
:103C4300E346464A4A52525262624700000000006D
:103C53001C2241414141414141221C00000000001E
:103C63003F424242423E02020202070000000000BD
:103C73001C224141414141414D321C600000000082
:103C83003F4242423E1212222242C700000000007D
:103C93007C4242020418204042423E0000000000E1
:103CA3007F4908080808080808081C0000000000ED
:103CB300E74242424242424242423C00000000008C
:103CC300E7424222242414141808080000000000CC
:103CD3006B2A2A2A2A2A361414141400000000001E
:103CE300E7422424181818242442E70000000000A7
:103CF300772222141408080808081C00000000009A
:103D03007E2120101008040442423F00000078087E
:103D130008080808080808080808087800000002CE
:103D230004040408080810102020204040001E103E
:103D330010101010101010101010101E0000182476
:103D43000000000000000000000000000000000070
:103D530000000000007E00000000000000000608D4
:103D63000000000000000000000000000000000050
:103D7300000000001C22302C22326C0000000000E6
:103D8300000302021A26424242261A0000000000E3
:103D93000000000038440202024438000000000022
:103DA300006040407C4242424262DC00000000006E
:103DB300000000003C42427E02423C000000000042
:103DC300003048083E08080808083E0000000000CC
:103DD300000000007C22221C023C42423C00000006
:103DE300000302023A4642424242E700000000005A
:103DF3000C0C00000E08080808083E000000000034
:103E03003030000038202020202020221E00000017
:103E13000003020272120A0E122277000000000051
:103E2300080E08080808080808083E0000000000FB
:103E3300000000007F9292929292B700000000006F
:103E4300000000003B4642424242E70000000000FF
:103E5300000000003C42424242423C00000000009D
:103E6300000000001B26424242261A0207000000FF
:103E7300000000005864424242645840E0000000E1
:103E830000000000774C040404041F00000000003D
:103E9300000000007C42023C40423E000000000063
:103EA300000008083E080808084830000000000029
:103EB30000000000634242424262DC000000000056
:103EC30000000000772222141408080000000000FC
:103ED30000000000DB91525A2A2424000000000055
:103EE300000000006E24181818247600000000005B
:103EF30000000000E7422424181808080600000008
:103F0300000000007E22100808447E000000C0204C
:103F13002020202020102020202020C0001010105E
:103F230010101010101010101010101010000304B7
:103F330004040404040804040404040300045A20CD
:103F4300000000000000000000000000000000006E
:103F53000000000000002F00000000070007000021
:103F6300147F147F1400242A7F2A1200626408132A
:103F73002300364955225000000503000000001CB1
:103F8300224100000041221C000014083E081400D6
:103F930008083E0808000000A060000008080808A0
:103FA30008000060600000002010080402003E5179
:103FB30049453E0000427F400000426151494600AE
:103FC3002141454B31001814127F10002745454508
:103FD30039003C4A4949300001710905030036495B
:103FE30049493600064949291E00003636000000BB
:103FF3000056360000000814224100001414141463
:10400300140000412214080002015109060032493C
:1040130059513E007C1211127C007F4949493600F8
:104023003E41414122007F4141221C007F494949D1
:1040330041007F09090901003E4149497A007F088F
:1040430008087F0000417F4100002040413F0100FC
:104053007F08142241007F40404040007F020C0251
:104063007F007F0408107F003E4141413E007F09ED
:10407300090906003E4151215E007F0919294600C6
:1040830046494949310001017F0101003F40404059
:104093003F001F2040201F003F4038403F00631473
:1040A300081463000708700807006151494543007D
:1040B300007F41410000552A552A55000041417FA8
:1040C300000004020102040040404040400000019F
:1040D300020400002054545478007F4844443800BC
:1040E300384444442000384444487F0038545454EE
:1040F3001800087E0901020018A4A4A47C007F080C
:104103000404780000447D4000004080847D00006A
:104113007F102844000000417F4000007C04180405
:1041230078007C0804047800384444443800FC24B4
:104133002424180018242418FC007C080404080014
:10414300485454542000043F444020003C40402045
:104153007C001C2040201C003C4030403C00442894
:10416300102844001CA0A0A07C004464544C4414B8
:1041730014141414140000000000000000000000D8
:104183000000000000000000F80000000000000034
:10419300333000000000100C06100C060000000075
:1041A300000000000040C07840C0784000043F0495
:1041B300043F040400007088FC083000000018204D
:1041C300FF211E0000F008F000E018000000211C91
:1041D300031E211E0000F00888700000001E21232A
:1041E300241927211010160E000000000000000003
:1041F3000000000000000000E018040200000000BE
:10420300071820400000020418E0000000004020CE
:104213001807000000404080F08040400002020187
:104223000F01020200000000F00000000001010184
:104233001F01010100000000000000000080B070B9
:104243000000000000000000000000000000010169
:1042530001010101010000000000000000003030F6
:1042630000000000000000000080601804006018D7
:10427300060100000000E010080810E000000F1025
:104283002020100F00001010F80000000000202074
:104293003F202000000070080808887000003028C4
:1042A300242221300000300888884830000018207C
:1042B3002020110E000000C02010F80000000704A9
:1042C30024243F240000F8088888080800001921E6
:1042D3002020110E0000E0108888180000000F1144
:1042E3002020110E0000380808C83808000000001C
:1042F3003F000000000070880808887000001C223E
:104303002121221C0000E010080810E00000003109
:104313002222110F00000000C0C0000000000000B6
:10432300303000000000000080000000000000802A
:10433300600000000000008040201008000001021F
:104343000408102000404040404040400004040462
:104353000404040400000810204080000000201022
:104363000804020100007048080808F0000000007B
:104373003036010000C030C828E810E000071827D5
:104383002423140B000000C038E0000000203C236D
:10439300020227382008F8888888700000203F2010
:1043A3002020110E00C03008080808380007182024
:1043B300202010080008F808080810E000203F201B
:1043C3002020100F0008F88888E8081000203F20FC
:1043D300202320180008F88888E8081000203F20D0
:1043E3000003000000C03008080838000007182048
:1043F30020221E020008F808000008F808203F21C8
:104403000101213F20000808F808080000002020CF
:104413003F2020000000000808F8080800C0808042
:10442300807F00000008F888C028180800203F207B
:10443300012638200008F8080000000000203F2073
:10444300202020300008F8F800F8F80800203F008A
:104453003F003F200008F830C00008F808203F2044
:104463000007183F00E01008080810E0000F1020B4
:104473002020100F0008F808080808F000203F214A
:104483000101010000E01008080810E0000F1824E3
:104493002438504F0008F8888888887000203F200F
:1044A30000030C302000708808080838000038200A
:1044B3002121221C00180808F80808180000002011
:1044C3003F2000000008F808000008F808001F203B
:1044D3002020201F000878880000C8380800000743
:1044E300380E010000F80800F80008F800033C0744
:1044F30000073C0300081868808068180820302CE7
:1045030003032C30200838C800C8380800000020F6
:104513003F2000000010080808C83808002038268B
:104523002120201800000000FE020202000000000B
:104533007F40404000000C30C0000000000000003D
:10454300010638C00000020202FE000000004040E5
:10455300407F00000000000402020204000000008B
:1045630000000000000000000000000000808080C8
:1045730080808080800002020400000000000000B0
:1045830000000000000000808080800000001924EB
:104593002222223F2008F8008080000000003F1103
:1045A3002020110E000000008080800000000E110A
:1045B3002020201100000000808088F800000E11E8
:1045C3002020103F200000808080800000001F22F8
:1045D3002222221300008080F0888888180020207F
:1045E3003F202000000000808080808000006B94CA
:1045F300949493600008F8008080800000203F219D
:104603000000203F20008098980000000000202038
:104613003F20200000000000809898000000C08028
:1046230080807F000008F8000080808000203F2405
:10463300022D302000000808F800000000002020B0
:104643003F202000008080808080808000203F20E9
:10465300003F20003F8080008080800000203F21B9
:104663000000203F200000808080800000001F2089
:104673002020201F00808000808000000080FFA198
:104683002020110E000000008080808000000E11A9
:104693002020A0FF80808080008080800020203F39
:1046A30021200001000000808080808000003324EE
:1046B3002424241900008080E08080000000000092
:1046C3001F202000008080000000808000001F2049
:1046D3002020103F20808080000080808000010E19
:1046E300300806010080800080008080800F300C3D
:1046F300030C300F00008080008080800000203198
:104703002E0E312000808080000080808080818E8A
:1047130070180601000080808080808000002130B6
:104723002C2221300000000000807C0202000000E7
:1047330000003F404000000000FF000000000000B8
:1047430000FF0000000002027C80000000004040E7
:104753003F00000000000601010202040400000003
:0F47630000000000002D002000256400256600E6
:00000001FF
